:100000000C941E010C9446010C9446010C9446017C
:100010000C9446010C9446010C9446010C94460144
:100020000C9446010C9446010C9446010C94460134
:100030000C9446010C9446010C9446010C94460124
:100040000C940B050C9446010C94D9040C94B30445
:100050000C9446010C9446010C9446010C94460104
:100060000C9446010C94460108000000BE922449FD
:10007000123EABAAAA2ABECDCCCC4C3E00000080DA
:10008000BEABAAAAAA3E00000000BF000000803F4D
:100090000000000000084178D3BB4387D1133D190D
:1000A0000E3CC3BD4282AD2B3E68EC8276BED98F3A
:1000B000E1A93E4C80EFFFBE01C4FF7F3F0000007E
:1000C000000000407A10F35A00A0724E1809001088
:1000D000A5D4E80000E87648170000E40B540200BD
:1000E00000CA9A3B000000E1F505000080969800E8
:1000F000000040420F000000A08601000000102711
:1001000000000000E80300000000640000000000A0
:100110000A00000000000100000000002C76D888D2
:10012000DC674F0823DFC1DFAE59E1B1B796E5E3E5
:10013000E453C63AE651997696E8E6C28426EB89FE
:100140008C9B62ED407C6FFCEFBC9C9F40F2BAA59B
:100150006FA5F490055A2AF75C936B6CF9676DC133
:100160001BFCE0E40D47FEF520E6B500D0ED902E37
:100170000300943577050080841E080000204E0A95
:10018000000000C80C333333330F986E12831141D3
:10019000EF8D2114893BE65516CFFEE6DB18D1849E
:1001A0004B381BF77C1D901DA4BBE42420328472C5
:1001B0005E228100C9F124ECA1E53D270000000882
:1001C000000201000003040700000000000000001E
:1001D0000A545F4E5A203D20000A545F4652203D8B
:1001E00020000A545F4252203D20000A545F464CD2
:1001F000203D20000A545F424C203D2000000000BA
:1002000000250028002B0000000000240027002A01
:1002100000040404040404040402020202020203AF
:1002200003030303030102040810204080010204B9
:1002300008102001020408102000A80711241FBE86
:10024000CFEFD8E0DEBFCDBF22E0A0E6B1E001C035
:100250001D92AA30B207E1F711E0A0E0B1E0EAE6B2
:10026000FEE102C005900D92A036B107D9F711E06A
:10027000CEE1D1E004C02197FE010E94310DCD31C5
:10028000D107C9F70E9455050C94330F0C94000058
:1002900090E0FC01EB5DFD4F2491FC01EF5EFD4F12
:1002A0008491882399F090E0880F991FFC01E95F01
:1002B000FD4FA591B491FC01E350FE4F85919491BF
:1002C0008FB7F894EC91E22BEC938FBF0895CF9207
:1002D000DF92EF92FF920F931F93CF93DF936C0106
:1002E0007A018B01C0E0D0E0CE15DF0581F0D801A6
:1002F0006D918D01D601ED91FC910190F081E02D81
:10030000C6010995892B11F02196EECF7E01C70118
:10031000DF91CF911F910F91FF90EF90DF90CF90E1
:100320000895089580E090E00895FC01538D448D78
:10033000252F30E0842F90E0821B930B541710F090
:10034000CF96089501970895FC01918D828D98179D
:1003500061F0828DDF01A80FB11D5D968C91928DA9
:100360009F5F9F73928F90E008958FEF9FEF0895A6
:10037000FC01918D828D981731F0828DE80FF11D6F
:10038000858D90E008958FEF9FEF0895FC01918D8A
:10039000228D892F90E0805C9F4F821B91098F7383
:1003A0009927089589E691E00E94C60121E0892BF2
:1003B00009F420E0822F0895FC01848DDF01A80F4D
:1003C000B11DA35ABF4F2C91848D90E001968F737D
:1003D0009927848FA689B7892C93A089B1898C919C
:1003E000837080648C93938D848D981306C00288EB
:1003F000F389E02D80818F7D80830895EF92FF92B5
:100400000F931F93CF93DF93EC0181E0888F9B8D37
:100410008C8D981305C0E889F989808185FD26C0F7
:10042000F62E0B8D10E00F5F1F4F0F731127E02E7C
:100430008C8DE8120CC00FB607FCFACFE889F98959
:10044000808185FFF5CFCE010E94DC01F1CF8B8D3D
:10045000FE01E80FF11DE35AFF4FF0829FB7F894B9
:100460000B8FEA89FB89808180620AC09FB7F8946C
:10047000EE89FF896083E889F989808183708064CF
:1004800080839FBF81E090E0DF91CF911F910F911A
:10049000FF90EF900895CF93DF93EC01888D882330
:1004A000C9F0EA89FB89808185FD05C0A889B989E1
:1004B0008C9186FD0FC00FB607FCF5CF808185FFBC
:1004C000F2CFA889B9898C9185FFEDCFCE010E942A
:1004D000DC01E7CFDF91CF91089580E090E0892B98
:1004E00029F00E94D20181110C940000089590E03F
:1004F000FC01E454FE4F2491FC01EB5DFD4F34916F
:10050000FC01EF5EFD4FE491EE2309F43CC0222391
:1005100039F1233091F038F42130A9F0223001F57F
:1005200084B58F7D12C0273091F02830A1F024309F
:10053000B9F4809180008F7D03C0809180008F7717
:10054000809380000DC084B58F7784BD09C08091F1
:10055000B0008F7703C08091B0008F7D8093B00092
:10056000F0E0EE0FFF1FE350FE4FA591B4919FB74F
:10057000F894611104C08C913095382302C0EC913D
:100580003E2B3C939FBF08951F93CF93DF93182F6B
:10059000EB010E944801209711F460E004C0CF3FB6
:1005A000D10539F461E0812FDF91CF911F910C9437
:1005B0007702E12FF0E0E454FE4FE491E330F9F0EC
:1005C00048F4E130B9F0E230A1F584B5806284BD31
:1005D000C8BD34C0E730E9F0E83019F1E43049F53E
:1005E00080918000806280938000D0938B00C093C4
:1005F0008A0024C084B5806884BDC7BD1FC08091B7
:100600008000806880938000D0938900C093880028
:1006100015C08091B00080688093B000C093B30093
:100620000DC08091B00080628093B000C093B40090
:1006300005C0C038D1050CF0B5CFAFCFDF91CF9159
:100640001F9108958E3008F08E50877080648093DB
:100650007C0080917A00806480937A0080917A0097
:1006600086FDFCCF809178002091790090E0922B5C
:1006700008953FB7F8948091650190916601A0912B
:100680006701B091680126B5A89B05C02F3F19F0FE
:100690000196A11DB11D3FBFBA2FA92F982F882702
:1006A000820F911DA11DB11DBC01CD0142E0660F5D
:1006B000771F881F991F4A95D1F7089542E050E0AF
:1006C00068E171E089E691E00C946701CF93DF93D4
:1006D000009779F0FC0101900020E9F73197AF0114
:1006E000481B590BBC0189E691E00E946701EC01AF
:1006F00002C0C0E0D0E00E945E038C0F9D1FDF911E
:10070000CF9108950E941E0F0F931F93CF93DF93F5
:10071000EC0188819981009729F02A813B81261775
:10072000370788F48B016F5F7F4F0E94580E009748
:1007300061F0998388831B830A832C813D81232B5D
:1007400011F4FC01108281E001C080E0DF91CF91C3
:100750001F910F910895EF92FF920F931F93CF93E4
:10076000DF93FB0104811581E080F180E114F10445
:1007700011F480E01AC001151105B1F0EC018C8173
:100780009D81080F191FB801CE010E9484038823A0
:1007900081F3288139818C819D81B701820F931F5C
:1007A0000E942C0F1D830C8381E0DF91CF911F915C
:1007B0000F91FF90EF900895EF92FF920F931F9388
:1007C000CF93DF936115710511F480E01EC08B019A
:1007D000EC01CB010E94FC070097B1F02C813D8118
:1007E0007C01E20EF31EB701CE010E948403882330
:1007F00061F3288139818C819D81B801820F931F1B
:100800000E94F507FD82EC8281E0DF91CF911F917C
:100810000F91FF90EF900895EF92FF920F931F9327
:10082000CF93DF93EC017B018A01BA010E9484031C
:100830002881398181110DC02115310519F0C901B7
:100840000E94CF0D198218821D821C821B821A827F
:1008500006C01D830C83B701C9010E942C0FCE0175
:10086000DF91CF911F910F91FF90EF900895EF923C
:10087000FF920F931F93CF93DF93CDB7DEB7A1976E
:100880000FB6F894DEBF0FBECDBF7C01CB01BA011D
:10089000F7011182108213821282158214828E0156
:1008A0000F5F1F4F24E046E00E94D507009769F0D4
:1008B000FC0101900020E9F73197AF01481B590B6B
:1008C000BC01C7010E940C040EC0F7018081918118
:1008D000009711F00E94CF0DF7011182108215824E
:1008E000148213821282A1960FB6F894DEBF0FBE57
:1008F000CDBFDF91CF911F910F91FF90EF900895A1
:100900000E943E0A20E030E040EA5BE30E949D0A3C
:100910009B01AC0160E070E080EA90E40E94FF0B74
:1009200020E030E040E85FE30E94920B20E030E0FE
:1009300041EE54E40E949D0A2AEE3DE844E35EE362
:100940000E94FF0B0E94B40C9B01AC0160E070EEB2
:1009500086E795E40E94FF0B23E333E948E853E47C
:100960000E94920B08951F920F920FB60F921124BE
:100970002F933F934F935F936F937F938F939F93A7
:10098000AF93BF93EF93FF9389E691E00E94DC0160
:10099000FF91EF91BF91AF919F918F917F916F9157
:1009A0005F914F913F912F910F900FBE0F901F902D
:1009B00018951F920F920FB60F9211242F938F93B9
:1009C0009F93EF93FF93E0917901F0917A018081F9
:1009D000E0917F01F091800182FD12C090818091B1
:1009E00082018F5F8F7320918301821751F0E09114
:1009F0008201F0E0E759FE4F958F8093820101C09C
:100A00008081FF91EF919F918F912F910F900FBE59
:100A10000F901F9018951F920F920FB60F921124EE
:100A20002F933F938F939F93AF93BF9380916101D7
:100A300090916201A0916301B091640130916001D5
:100A400023E0230F2D3720F40196A11DB11D05C011
:100A500026E8230F0296A11DB11D2093600180930B
:100A6000610190936201A0936301B093640180914E
:100A7000650190916601A0916701B09168010196AE
:100A8000A11DB11D8093650190936601A09367013C
:100A9000B0936801BF91AF919F918F913F912F913A
:100AA0000F900FBE0F901F901895CF93DF93CDB787
:100AB000DEB760970FB6F894DEBF0FBECDBF789457
:100AC00084B5826084BD84B5816084BD85B5826053
:100AD00085BD85B5816085BD80916E008160809304
:100AE0006E0010928100809181008260809381006D
:100AF000809181008160809381008091800081607D
:100B0000809380008091B10084608093B1008091D7
:100B1000B00081608093B00080917A0084608093FF
:100B20007A0080917A00826080937A0080917A00C6
:100B3000816080937A0080917A00806880937A0047
:100B40001092C100E0917901F0917A0182E08083F6
:100B5000E0917501F09176011082E0917701F091BA
:100B600078018FEC808310928101E0917D01F091FA
:100B70007E0186E08083E0917B01F0917C018081A1
:100B800080618083E0917B01F0917C0180818860AD
:100B90008083E0917B01F0917C018081806880837B
:100BA000E0917B01F0917C0180818F7D808383E0E7
:100BB0000E94480185E00E94480186E00E944801A9
:100BC0000AE010E0C12CD12C760180E00E942203C3
:100BD000BC01990F880B990B0E943E0A9B01AC0146
:100BE000C701B6010E94930B6B017C0101501109F2
:100BF00061F720E030E040E251E40E94FF0B0E94E8
:100C0000710C0E9480045B016C0181E00E94220350
:100C1000BC01990F880B990B0E948004962E872E99
:100C2000782E692E82E00E942203BC01990F880B66
:100C3000990B0E9480047B018C0183E00E942203B7
:100C4000BC01990F880B990B0E9480046D877E87E9
:100C50008F87988B84E00E942203BC01990F880B38
:100C6000990B0E9480041B012C0118861F821A8692
:100C700019861C861B8640E050E06AE171E0CE01D7
:100C800007960E940C0464EF71E0CE0107960E9463
:100C9000DC03A501B601CE0101960E943704BE0116
:100CA0006F5F7F4FCE0107960E94AB0389819A81C7
:100CB0000E94CF0D6BEE71E0CE0107960E94DC031F
:100CC000492D582D672D762DCE0101960E943704AF
:100CD000BE016F5F7F4FCE0107960E94AB038981F3
:100CE0009A810E94CF0D62EE71E0CE0107960E94BC
:100CF000DC03A701B801CE0101960E943704BE01B2
:100D00006F5F7F4FCE0107960E94AB0389819A8166
:100D10000E94CF0D69ED71E0CE0107960E94DC03C1
:100D20004D855E856F857889CE0101960E943704D6
:100D3000BE016F5F7F4FCE0107960E94AB03898192
:100D40009A810E94CF0D60ED71E0CE0107960E945E
:100D5000DC03B201A101CE0101960E943704BE015D
:100D60006F5F7F4FCE0107960E94AB0389819A8106
:100D70000E94CF0D4B855C856F81788589E691E077
:100D80000E9467010E945E03292D382D472D562DA4
:100D9000B501C6010E94A70C20E030E044E353E413
:100DA00018160CF4C7C0692D782D872D962D0E943A
:100DB000A70C87FD09C060E070E083E00E94C402D8
:100DC0008BE191E00E946603292D382D472D562D89
:100DD000B501C6010E94A70C181624F0A92CB82C46
:100DE000C72CD62C20E030E044E353E4B501C60123
:100DF0000E94370A87FF09C068E770E083E00E941D
:100E0000C40286E291E00E9466032D853E854F85EF
:100E10005889B701C8010E94A70C20E030E044E3E4
:100E200053E418160CF48DC06D857E858F859889E6
:100E30000E94A70C87FD09C060E070E085E00E9479
:100E4000C40280E391E00E9466032D853E854F85B4
:100E50005889B701C8010E94A70C181624F0ED8428
:100E6000FE840F85188920E030E044E353E4B701A5
:100E7000C8010E94370A87FF09C068E770E085E073
:100E80000E94C4028CE391E00E94660320E030E0FF
:100E900044E353E4C201B1010E94A70C87FD09C0DD
:100EA00060E070E086E00E94C40287E491E00E9466
:100EB000660320E030E044E353E4C201B1010E9444
:100EC000370A87FF09C068E770E086E00E94C40225
:100ED00084E591E00E9466030E9439034B015C01A6
:100EE00084EFC82EDD24D394E12CF12C0E94390329
:100EF000DC01CB0188199909AA09BB09883E9340F6
:100F0000A105B10598F321E0C21AD108E108F10862
:100F100088EE880E83E0981EA11CB11CC114D10478
:100F2000E104F10419F78F8198850E94CF0D0E948A
:100F30006D0246CEB501C6010E94A70C87FF3BCFCC
:100F400051CFB701C8010E94A70C87FF75CF8BCF87
:100F5000E9E6F1E01382128288EE93E0A0E0B0E0CF
:100F600084839583A683B7838AE091E0918380830D
:100F700085EC90E09587848784EC90E0978786875E
:100F800080EC90E0918B808B81EC90E0938B828B56
:100F900082EC90E0958B848B86EC90E0978B868B2F
:100FA000118E128E138E148E0895EF920F931F934D
:100FB000CF93DF93E80147FD02C034E001C034E184
:100FC000042E000C550B57FF03C051954195510954
:100FD000E32E022F242FAE010E940508CE01DF91DF
:100FE000CF911F910F91EF900895FB01DC010590C7
:100FF0000D920020E1F70895FC0105900020E9F72B
:10100000809590958E0F9F1F0895A9E0B0E0EBE0CA
:10101000F8E00C94610B6A01122FB02E2BE320171D
:1010200020F0FF24F394F00E02C02CE3F22E0F2DDB
:1010300027E0AE014F5F5F4F0E945F09BC0149810D
:10104000842F8970813031F0E1FC06C0E0FE06C0DB
:1010500090E205C09DE203C09BE201C090E05E2DDE
:10106000507143FF3CC0911102C083E001C084E095
:10107000811718F4212F281B01C020E051110BC04B
:10108000F601822F30E2882319F031938150FBCF93
:10109000C20ED11C20E0992329F0D6019C93F601C1
:1010A00031966F01C6010396E2FE0AC03EE4D60106
:1010B0003C9341E411964C93119712963C9306C0D1
:1010C0003EE6F601308341E641833283FC01322F54
:1010D00040E2332309F442C041933150FACF42FF3A
:1010E00044C0911102C083E001C084E0811718F46C
:1010F000212F281B01C020E051110BC0F601822FC7
:1011000030E2882319F031938150FBCFC20ED11CFD
:1011100020E0992329F0D6019C93F60131966F01C6
:10112000C6010396E2FE0BC039E4D6013C933EE4CF
:1011300011963C93119736E412963C9307C039E61A
:10114000F60130833EE6318336E63283FC01322FEE
:1011500040E2332319F041933150FBCFFC01E20F01
:10116000F11D10828EEF9FEFA6C021E030E09111BB
:1011700002C020E030E0161617061CF4FB01319681
:1011800002C0E1E0F0E02E0F3F1FBB2021F0EB2D6D
:10119000F0E0319602C0E0E0F0E02E0F3F1FE12FBB
:1011A000F0E02E173F071CF4121B212F01C020E096
:1011B0008E2D887159F4F601822F30E2882319F0C0
:1011C00031938150FBCFC20ED11C20E0992329F02E
:1011D000D6019C93F60131966F0151110BC0F601B7
:1011E000822F90E3882319F091938150FBCFC20E98
:1011F000D11C20E00F2D060F9A81342F307144FF4F
:1012000003C0913309F40150101624F4093018F08A
:1012100008E001C001E0AB0177FF02C040E050E010
:10122000FB01E41BF50BA1E0B0E0AC0FBD1FEA0F22
:10123000FB1F8EE2A82E4B01801A91080B2D10E0A7
:101240001195019511094F3FBFEF5B0721F4D601BE
:10125000AC9211966D01641775072CF084169506F3
:1012600014F4818101C080E3415051093196D601C7
:1012700011967D014017510724F0D6018C93670128
:10128000E2CF6417750739F4963320F4953319F4D7
:10129000311101C081E3F6018083F701822F90E2D2
:1012A000882319F091938150FBCFF701E20FF11DD4
:1012B000108280E090E02996ECE00C947D0B2830C1
:1012C00008F027E03327DA01990F311D87FD91607F
:1012D00000966105710539F432602E5F3D9330E36D
:1012E0002A95E1F708959F3F30F080387105610538
:1012F00009F03C5F3C5F3D93913008F08068911DA0
:10130000DF93CF931F930F93FF92EF92192F987F44
:101310009695E92F96959695E90FFF27E45EFE4F87
:1013200099273327EE24FF24A701E70105900894AD
:10133000079428F4360FE71EF81E491F511D660F4B
:10134000771F881F991F0694A1F70590079428F42A
:10135000E70EF81E491F561FC11D770F881F991FE2
:10136000661F0694A1F70590079428F4F80E491F0C
:10137000561FC71FD11D880F991F661F771F069420
:10138000A1F70590079420F4490F561FC71FD81FD7
:10139000990F661F771F881F0694A9F784911095EF
:1013A000177041F0D695C79557954795F794E794F0
:1013B0001A95C1F7E2ECF0E068941590159135911B
:1013C0006591959105907FE27395E118F10A430BC1
:1013D000560BC90BD009C0F7E10CF11E431F561F75
:1013E000C91FD01D7EF4703311F48A95E6CFE894BE
:1013F000015030F0080F0AF40027021708F4202FDC
:101400002395022F7A3328F079E37D932A95E9F723
:1014100010C07D932A9589F6069497956795379520
:1014200017951794E118F10A430B560BC90BD00915
:1014300098F023957E9173957A3308F070E37C934E
:101440002013B8F77E9170617D9330F0839571E33E
:101450007D9370E32A95E1F71124EF90FF900F91AF
:101460001F91CF91DF91992787FD909508950E9454
:10147000790A08F481E00895E89409C097FB3EF4E6
:1014800090958095709561957F4F8F4F9F4F9923D1
:10149000A9F0F92F96E9BB279395F695879577954F
:1014A0006795B795F111F8CFFAF4BB0F11F460FF0F
:1014B0001BC06F5F7F4F8F4F9F4F16C0882311F067
:1014C00096E911C0772321F09EE8872F762F05C07B
:1014D000662371F096E8862F70E060E02AF09A9516
:1014E000660F771F881FDAF7880F9695879597F90B
:1014F0000895990F0008550FAA0BE0E8FEEF1616A5
:101500001706E807F907C0F012161306E407F507F7
:1015100098F0621B730B840B950B39F40A2661F06B
:10152000232B242B252B21F408950A2609F4A1400E
:10153000A6958FEF811D811D08950E94B00A0C941D
:10154000210B0E94130B38F00E941A0B20F09523F8
:1015500011F00C940A0B0C94100B11240C94550BE5
:101560000E94320B70F3959FC1F3950F50E0551F09
:10157000629FF001729FBB27F00DB11D639FAA27E8
:10158000F00DB11DAA1F649F6627B00DA11D661F37
:10159000829F2227B00DA11D621F739FB00DA11D58
:1015A000621F839FA00D611D221F749F3327A00D12
:1015B000611D231F849F600D211D822F762F6A2FAE
:1015C00011249F5750409AF0F1F088234AF0EE0F13
:1015D000FF1FBB1F661F771F881F91505040A9F740
:1015E0009E3F510580F00C940A0B0C94550B5F3F05
:1015F000E4F3983ED4F3869577956795B795F7957C
:10160000E7959F5FC1F7FE2B880F911D96958795F3
:1016100097F9089597F99F6780E870E060E0089572
:101620009FEF80EC089500240A94161617061806FA
:101630000906089500240A941216130614060506D6
:101640000895092E0394000C11F4882352F0BB0F67
:1016500040F4BF2B11F460FF04C06F5F7F4F8F4FCA
:101660009F4F089557FD9058440F551F59F05F3F05
:1016700071F04795880F97FB991F61F09F3F79F0B4
:1016800087950895121613061406551FF2CF469536
:10169000F1DF08C0161617061806991FF1CF8695B8
:1016A0007105610508940895E894BB27662777279C
:1016B000CB0197F908952F923F924F925F926F92CC
:1016C0007F928F929F92AF92BF92CF92DF92EF92D2
:1016D000FF920F931F93CF93DF93CDB7DEB7CA1B53
:1016E000DB0B0FB6F894DEBF0FBECDBF09942A887E
:1016F000398848885F846E847D848C849B84AA8426
:10170000B984C884DF80EE80FD800C811B81AA81B2
:10171000B981CE0FD11D0FB6F894DEBF0FBECDBF7D
:10172000ED0108955058BB27AA270E94AA0B0C94DC
:10173000210B0E94130B38F00E941A0B20F039F491
:101740009F3F19F426F40C94100B0EF4E095E7FB80
:101750000C940A0BE92F0E94320B58F3BA17620758
:1017600073078407950720F079F4A6F50C94540BC1
:101770000EF4E0950B2EBA2FA02D0B01B9019001AC
:101780000C01CA01A0011124FF27591B99F0593FF0
:1017900050F4503E68F11A16F040A22F232F342F38
:1017A0004427585FF3CF469537952795A795F04086
:1017B0005395C9F77EF41F16BA0B620B730B840B9B
:1017C000BAF09150A1F0FF0FBB1F661F771F881F53
:1017D000C2F70EC0BA0F621F731F841F48F48795AB
:1017E00077956795B795F7959E3F08F0B0CF93959D
:1017F000880F08F09927EE0F9795879508950E9416
:10180000130C0C94210B0E941A0B58F00E94130B1E
:1018100040F029F45F3F29F00C940A0B51110C940D
:10182000550B0C94100B0E94320B68F39923B1F303
:10183000552391F3951B550BBB27AA2762177307F6
:10184000840738F09F5F5F4F220F331F441FAA1F8A
:10185000A9F335D00E2E3AF0E0E832D09150504046
:10186000E695001CCAF72BD0FE2F29D0660F771FF4
:10187000881FBB1F261737074807AB07B0E809F0DA
:10188000BB0B802DBF01FF2793585F4F3AF09E3F5F
:10189000510578F00C940A0B0C94550B5F3FE4F360
:1018A000983ED4F3869577956795B795F7959F5FA2
:1018B000C9F7880F911D9695879597F90895E1E0EE
:1018C000660F771F881FBB1F621773078407BA074D
:1018D00020F0621B730B840BBA0BEE1F88F7E095A8
:1018E00008950E94780C6894B1110C94550B0895DA
:1018F0000E943A0B88F09F5798F0B92F9927B7515B
:10190000B0F0E1F0660F771F881F991F1AF0BA95A3
:10191000C9F714C0B13091F00E94540BB1E00895A2
:101920000C94540B672F782F8827B85F39F0B93F94
:10193000CCF3869577956795B395D9F73EF4909556
:101940008095709561957F4F8F4F9F4F08950E94AE
:10195000790A08F48FEF089516F00C94FC0C0C949F
:10196000100B68940C940A0B0E943A0BA8F399236D
:10197000C1F3AEF3DF93CF931F930F93FF92C92F61
:10198000DD2788232AF02197660F771F881FDAF753
:1019900020E030E040E85FEB9FE3883920F0803EB4
:1019A00038F021968F770E94930BE8E6F0E004C0B0
:1019B0000E94930BE5E9F0E00E940A0D8B01BE0145
:1019C000EC01FB2E6F5771097595771F880B990BEA
:1019D0000E943E0A28E132E741E35FE30E94B00A39
:1019E000AF2D9801AE01FF900F911F91CF91DF9124
:1019F0000E94AA0B0C94210B9F3F31F0915020F4D0
:101A0000879577956795B795880F911D96958795DA
:101A100097F90895DF93CF931F930F93FF92EF925F
:101A2000DF927B018C01689406C0DA2EEF010E94E0
:101A3000B00AFE01E894A591259135914591559103
:101A4000A6F3EF010E94AA0BFE019701A801DA9408
:101A500069F7DF90EF90FF900F911F91CF91DF9189
:101A60000895EE0FFF1F0590F491E02D09940F9358
:101A70001F93CF93DF938230910510F482E090E0C2
:101A8000E0910802F091090220E030E0A0E0B0E02F
:101A9000309719F14081518102811381481759070C
:101AA000C8F08417950769F4109731F012960C93DB
:101AB000129713961C9327C00093080210930902F3
:101AC00022C02115310519F04217530718F49A0165
:101AD000BD01EF01DF01F801DBCF21153105F9F080
:101AE000281B390B2430310580F48A819B816115D4
:101AF000710521F0FB019383828304C09093090256
:101B000080930802FE01329644C0FE01E20FF31FEB
:101B10008193919322503109398328833AC02091CF
:101B2000060230910702232B41F4209102013091EB
:101B300003013093070220930602209100013091A7
:101B400001012115310541F42DB73EB74091040143
:101B500050910501241B350BE0910602F09107021C
:101B6000E217F307A0F42E1B3F0B2817390778F074
:101B7000AC014E5F5F4F2417350748F04E0F5F1FD3
:101B800050930702409306028193919302C0E0E0D4
:101B9000F0E0CF01DF91CF911F910F910895CF9386
:101BA000DF93009709F481C0FC01329713821282FF
:101BB000A0910802B0910902109781F4208131812F
:101BC000820F931F209106023091070228173907D0
:101BD00051F5F0930702E093060267C0ED0120E0A3
:101BE00030E0CE17DF0740F44A815B819E0141154A
:101BF0005105F1F0EA01F5CFD383C28340815181D1
:101C0000840F951FC817D90759F488819981840FCB
:101C1000951F0296918380838A819B81938382831F
:101C20002115310529F4F0930902E09308023DC023
:101C3000E901FB83EA8349915991C40FD51FEC1741
:101C4000FD0761F480819181840F951F0296E9015F
:101C500099838883828193819B838A83E0E0F0E08B
:101C600012968D919C911397009719F0FD01DC015C
:101C7000F7CF8D919C9111979D012E5F3F4F820F61
:101C8000931F20910602309107022817390769F443
:101C9000309729F4109209021092080202C01382B0
:101CA0001282B0930702A0930602DF91CF910895AC
:101CB000A0E0B0E0EEE5FEE00C945F0BEC010097D5
:101CC00021F4CB010E94370DB4C0FC01E60FF71FD1
:101CD0009C0122503109E217F30708F4A8C0D9018A
:101CE0000D911C91119706171707B0F005301105DB
:101CF00008F49BC0C80104978617970708F495C09D
:101D000002501109061B170B019311936D937C93DD
:101D1000CF010E94CF0D89C05B01A01AB10A4C010E
:101D2000800E911EA0910802B0910902612C712CC5
:101D3000E12CF12C109709F446C08D919C911197DC
:101D4000A815B905B1F56C0142E0C40ED11CCA1446
:101D5000DB0478F14C018A189B08640142E0C40E50
:101D6000D11C1296BC9012971396AC91B5E0CB168D
:101D7000D10440F0B282A38391828082D9016D9315
:101D80007C9309C00E5F1F4F800F911FF901918353
:101D90008083EB2DFA2FE114F10431F0D701139673
:101DA000FC93EE93129741C0F0930902E09308026E
:101DB0003CC06816790608F43C017D0112960D902E
:101DC000BC91A02DB7CF8091060290910702881692
:101DD0009906E1F466167706C8F4809100019091A7
:101DE0000101009741F48DB79EB7409104015091D5
:101DF0000501841B950BE817F907C8F4F093070257
:101E0000E0930602F901718360830FC0CB010E9449
:101E1000370D7C01009759F0A801BE010E94230FE5
:101E2000CE010E94CF0DC70104C0CE0102C080E0E8
:101E300090E0CDB7DEB7EEE00C947B0B81E090E054
:101E4000F8940C94330FFB01DC0102C001900D9259
:101E500041505040D8F70895FB01DC0101900D92EC
:0A1E60000020E1F70895F894FFCF89
:101E6A0000000A02800000000000FE0167019501DF
:101E7A004B02C601A401B8010D0A00485F4C656611
:101E8A0074204F464600485F4C656674204F4E00EA
:101E9A00485F5269676874204F464600485F526936
:101EAA00676874204F4E00485F4E6F7A7A6C6520DF
:101EBA004F464600485F4E6F7A7A6C65204F4E0057
:00000001FF
